:020000040800F2
:1000000000800120C12800081129000811290008DA
:10001000112900081129000811290008000000001A
:10002000000000000000000000000000112900088E
:1000300011290008000000001129000833250008DC
:1000400011290008112900081129000811290008A8
:1000500011290008112900089D250008A325000882
:10006000A9250008AF250008B525000811290008BA
:100070001129000811290008112900081129000878
:1000800011290008112900081129000800000000AA
:10009000000000000000000000000000BB25000878
:1000A000912A0008312A0008A12A00081129000815
:1000B000512A0008612A0008712A00085D2B0008F7
:1000C000692B0008752B0008812B000811290008F6
:1000D00011290008D92E0008F12E000800000000A8
:1000E000D1250008B52800081129000800000000EB
:1000F00000000000000000000000000011290008BE
:100100000000000011290008812A000811290008B8
:1001100000000000000000000000000000000000DF
:1001200011290008112900081129000811290008C7
:10013000112900080000000000000000000000007D
:10014000000000000000000000000000112900086D
:10015000112900081129000811290008092F000899
:100160008D2B0008992B0008000000000000000003
:10017000000000000000000000000000000000007F
:10018000000000001129000800000000000000002D
:040190001129000829
:1001940010B5054C237833B9044B13B10448AFF3BD
:1001A40000800123237010BD2800002000000000FF
:1001B400A83000080C4B43B10C480D4910B5AFF3FF
:1001C40000800C48036823B910BD0A48036833B99A
:1001D4007047094B002BF7D0BDE810401847064B79
:1001E400002BF5D0184700BF00000000A83000081D
:1001F4002C000020280000200000000053B94AB958
:10020400002908BF00281CBF4FF0FF314FF0FF301A
:1002140000F07AB9ADF1080C6DE904CE00F006F8EF
:10022400DDF804E0DDE9022304B070472DE9F0476E
:100234008C460D460446089E002B51D18A4217462F
:100244006DD9B2FA82FEBEF1000F0BD0CEF1200CB4
:1002540001FA0EF520FA0CFC02FA0EF74CEA050C32
:1002640000FA0EF44FEA174A250CBCFBFAF81FFA01
:1002740087F90AFB18CC45EA0C4508FB09F3AB42A5
:100284000AD9ED1908F1FF3280F02381AB4240F224
:100294002081A8F102083D44ED1AA4B2B5FBFAF09E
:1002A4000AFB105544EA054400FB09F9A14509D9A4
:1002B400E41900F1FF3380F00A81A14540F207817F
:1002C40002383C44A4EB090440EA08400021002E13
:1002D40061D024FA0EF4002334607360BDE8F08723
:1002E4008B4207D9002E54D0002186E8210008460D
:1002F400BDE8F087B3FA83F1002940F08E80AB4269
:1003040002D3824200F2FA80841A65EB03050120CD
:10031400AC46002E3FD086E81010BDE8F08712B935
:100324000127B7FBF2F7B7FA87FEBEF1000F34D10D
:10033400EB1B3A0C1FFA87FC0121B3FBF2F8250CE6
:1003440002FB183345EA03450CFB08F3AB4207D91B
:10035400ED1908F1FF3002D2AB4200F2D1808046A1
:10036400ED1AA3B2B5FBF2F002FB105543EA0544C3
:100374000CFB00FCA44507D9E41900F1FF3302D2B9
:10038400A44500F2B8801846A4EB0C0440EA0840E7
:100394009DE731463046BDE8F087CEF1200405FAEA
:1003A4000EF307FA0EF720FA04F83A0C25FA04F4CF
:1003B40048EA0308B4FBF2F14FEA184502FB114482
:1003C4001FFA87FC45EA044501FB0CF3AB4200FA33
:1003D4000EF409D9ED1901F1FF3080F08A80AB42A7
:1003E40040F2878002393D44EB1A1FFA88F5B3FBCB
:1003F400F2F002FB103345EA034500FB0CF3AB4279
:1004040007D9ED1900F1FF386FD2AB426DD902382C
:100414003D44EB1A40EA01418FE7C1F1200722FA7B
:1004240007F88B4005FA01F448EA030320FA07FEB3
:100434004FEA134CFD404EEA040EB5FBFCF94FEABB
:100444001E440CFB19551FFA83F844EA054509FBC1
:1004540008F4AC4202FA01F200FA01FA08D9ED18E4
:1004640009F1FF3043D2AC4241D9A9F102091D443C
:100474002D1B1FFA8EFEB5FBFCF00CFB10554EEA4B
:10048400054400FB08F8A04507D9E41800F1FF353E
:1004940029D2A04527D902381C4440EA0940A4EBDC
:1004A4000804A0FB02894C45C6464D4615D312D01C
:1004B40056B1BAEB0E0364EB050404FA07F7CB401C
:1004C4001F43CC40376074600021BDE8F0871846B4
:1004D400F8E69046E0E6C245EAD2B8EB020E69EBD4
:1004E40003050138E4E72846D7E7404691E781460B
:1004F400BEE7014678E702383C4445E7084608E78A
:10050400A8F102083D442BE7704700BF08B501215C
:100514000C2002F003FD0121302002F0FFFC012138
:100524000D2002F0FBFC06224FF416510248BDE8F0
:10053400084000F047B900BF4400002008B501217D
:100544000D2002F03FFD642002F05EFD0D2000212D
:1005540002F038FD6420BDE8084002F055BD0000FB
:1005640000B5302299B000210DEB020002F092FD9B
:100574001422002102A802F08DFD1422002107A8F4
:1005840002F088FD2A4B002100911A6C42F080523F
:100594001A641B6C274A03F080530093009B01915B
:1005A400136823F4404343F400431360136803F4D3
:1005B40040430193019B0B2310220C934FF480338F
:1005C4000D93109201234FF480020F931193139211
:1005D40002230422129314921693482203230CA894
:1005E4001592179301F014F818B19521124802F0EE
:1005F4008EF900210F2302A802930391049105911F
:10060400069101F0B5F918B1A2210B4802F07FF967
:100614000223079307A84FF400730A9301F062FAC8
:1006240018B1A821044802F072F919B05DF804FB6E
:10063400003802400070004070320008B0F86A30A0
:10064400013303F03F03A0F86A30B0F86A30B0F821
:1006540068009BB298424FF0FF3018BF00207047EB
:10066400B0F8F430B0F8F600181A00F03F00704704
:10067400B0F8F430B0F8F6209BB293421ABFD0F829
:10068400F030985C4FF0FF307047B0F8F420B0F8C9
:10069400F63092B29A421FBFD0F8F020D25C0133F8
:1006A40003F03F031ABFA0F8F63010464FF0FF30B6
:1006B400704713B50DF10701044602F037FB90B9FA
:1006C400B4F86030B4F86220013303F03F0393427E
:1006D40009D0B4F86020E16D9DF8070092B29BB296
:1006E4008854A4F8603002B010BD000010B5B0F812
:1006F400FC4001230374E31803F03F03B0F8FE2029
:1007040092B29342FAD0D0F8F820115500F1940433
:10071400A0F8FC30204602F0F7FA18B90249204646
:1007240002F04CFB012010BD41060008037C33B1EC
:10073400B0F8FC20B0F8FE309BB29A42FAD1704770
:1007440000F11103C0F8F03000F151020023A0F8C9
:10075400F430A0F8F630C0F8F820A0F8FC30A0F887
:10076400FE30704738B5002343604FF47A738360DA
:100774000F4B03600F4B984204460D460BD10E4BB2
:100784001A785B7880F8ED2080F8EC302046FFF78B
:10079400D7FF204638BD0949284602F05DF80849CC
:1007A40084F8ED00284602F057F884F8EC00EDE7F1
:1007B4007033000844000020C932000828320008C1
:1007C4004C32000802F00703023BDBB2042B10B5E5
:1007D400C0F8DC1098BF1D4980F8002198BFCB5C9D
:1007E40002F0300188BF00233029044615D14FF4AC
:1007F400C061C4F8E810013312F0080218BF4FF4C6
:100804000052082BC4F8E42010D0092B1BD040F26E
:100814005B110F4802F07BF80BE012F0200102D0CC
:100824004FF48061E5E7C0F8E810E5E70023C4F879
:10083400E0309434204602F0B3F920460549BDE87F
:10084400104002F08FBA4FF48053F0E704330008ED
:1008540009330008B706000801490248FFF782BFC0
:1008640000440040440000202DE9F04106460D46B6
:1008740001EB02080C464445A4EB050707D0336896
:1008840014F8011B1B68304698470028F3D13846FA
:10089400BDE8F08110B5044602F0B4FBE0602368C3
:1008A4002046DB689847002808DA02F0ABFBE368CF
:1008B400C01AA3689842F2D34FF0FF3010BD2DE95F
:1008C400F04180460D468F180C46BC42A4EB050649
:1008D40007D04046FFF7DEFF002802DB04F8010BD7
:1008E400F3E73046BDE8F0812DE9F84380468946B8
:1008F40016461C467BB1D7181546AF42A5EB060435
:1009040009D04046FFF7C6FF002804DB484502D063
:1009140005F8010BF1E72046BDE8F883836810B5BC
:10092400044613B1032201469847204610BD000037
:1009340008B5044B2BB10448FFF792FE08B1AFF39E
:10094400008008BD000000004400002001F0F7BD55
:100954007047704708B5032000F066F8BDE808400A
:10096400FFF7F4BF08B5FFF7F4FFFFF7CFFD044C22
:10097400FFF7E4FD002CFBD0FFF7DAFFF8E700BF38
:10098400350900087047000038B50E4A0E4B05467D
:1009940018784FF47A73B3FBF0F31068B0FBF3F0FC
:1009A40000F096F8044658B90F2D09D80246294696
:1009B4004FF0FF3000F04AF8044B20461D6038BD6C
:1009C400012038BD2400002004000020080000207D
:1009D40008B50B4B1A6842F400721A601A6842F4A4
:1009E40080621A601A6842F480721A60032000F070
:1009F4001BF80020FFF7C8FFFFF7C4FF002008BD65
:100A0400003C0240034A044B11681B780B441360FA
:100A1400704700BF0C04002004000020014B18683C
:100A2400704700BF0C040020074AD36823F4E06336
:100A34001B041B0C43F0BF63000243F4003300F4B7
:100A4400E0600343D360704700ED00E0174B30B51E
:100A5400DC68C4F30224C4F10703251D042B28BF5A
:100A64000423062D4FF0010505FA03F303F1FF33C8
:100A74008CBF033C00241940A14005FA04F4013C56
:100A84002240002842EA01024FEA0212ADBF00F1FF
:100A9400604000F00F00064B00F56140B5BFD2B2D4
:100AA400D2B21A5480F8002330BD00BF00ED00E03C
:100AB40014ED00E0002808DB4209012300F01F00C8
:100AC40003FA00F0014B43F82200704700E100E014
:100AD4000138B0F1807F0AD2064B074A5860F021F2
:100AE40082F823100020072298601A6070470120C2
:100AF400704700BF10E000E000ED00E0002809DBD3
:100B04004309012200F01F0002FA00F06033024A98
:100B140042F82300704700BF00E100E0704708B5C9
:100B2400FFF7FCFF08BD90F83530022B03D080237B
:100B34004365012070470268052380F83530136847
:100B440023F00103136000207047000008B5044B34
:100B54005969014202D0586101F008FD08BD00BF87
:100B6400003C014037B590F83D40282C34D1002991
:100B740030D0002A2ED090F83C40012C2CD00568AF
:100B8400012480F83C402C68E4075EBF2C6844F0E4
:100B940001042C602C6824F400642C60292480F85F
:100BA4003D40202480F83E40002404644285C36212
:100BB400438D019403856B690193AB690193019B98
:100BC4006B68416243F4E06380F83C406B6020460C
:100BD40003B030BD0120FBE70220F9E737B590F8F8
:100BE4003D40282C34D1002930D0002A2ED090F852
:100BF4003C40012C2CD00568012480F83C402C6832
:100C0400E4075EBF2C6844F001042C602C6824F4D3
:100C140000642C602A2480F83D40202480F83E4063
:100C2400002404644285C362438D019403856B6987
:100C34000193AB690193019B6B68416243F4E063E8
:100C440080F83C406B60204603B030BD0120FBE7D8
:100C54000220F9E790F83D30202B14D1282380F8A6
:100C64003D3003681A68D2075EBF1A6842F0010279
:100C74001A601A6842F480621A605A6842F4407238
:100C84005A600020704702207047704770477047D1
:100C94007047704790F83D30293B012B10B503682D
:100CA400044639D800220263282280F83D201A68BD
:100CB40022F400621A605A6812F4006254D05A682E
:100CC400606B22F400625A6090F83530012B394B86
:100CD40031D00365FFF727FF50B12268606B1368BA
:100CE40023F001031360202384F83D30036D9847FB
:100CF40094F83D30282B0ED1236C5B070BD52E4B7B
:100D0400E362202200232363204684F83D2084F8F4
:100D14003E3001F0EEFE10BD90F83D20602A05D073
:100D24005A6812055CBF202280F83D20002222630D
:100D340084F83E20BBE7A06B0365FFF7F4FE0028B0
:100D4400D6D022685369580604D5636A1269591CBF
:100D540061621A702268A06B136823F001031360A8
:100D6400202384F83D30C1E794F83D10602914D164
:100D7400202184F83D1022645A69510604D5626A20
:100D84001B69511C616213702268136823F001030C
:100D940013602046FFF77DFFAAE75A69520604D57F
:100DA400626A1B69511C61621370204601F0CEFE19
:100DB4009EE700BFC91500080000FFFF0368F0B5F7
:100DC4009D6959695A6890F83E40E4B2102C8DB080
:100DD40002D0402C40F0558211F0011F66D09705D7
:100DE40064D590F83E40402C43D1046D002C3BD197
:100DF400446C04F0FE041C61984E994C2E400C4047
:100E0400002E00F09F81974D0D40002D00F066816B
:100E1400550540F16381002C40F0608190F83D203D
:100E2400058D90F83E10C46AD2B2C9B2002D40F0CC
:100E34000581212A40F00481042C00F06C81082CE7
:100E440000F0698114F5803F00F065815A6822F44E
:100E5400E0625A601123036380F83E50202380F837
:100E64003D30FFF712FFF6E0446C44F00104E4B2B5
:100E7400C1E70469B4F5804F05D190F83D40212CB9
:100E8400446CF2D1B5E7046D34B9446CE41104F058
:100E9400060444F0F004AEE7046D012CACD1446CBC
:100EA400E41104F0060444F0F104A4E76E4C0C4091
:100EB4001CB1960501D5446CD9E76C4C0C40002C50
:100EC4009AD0940598D590F83E40C66AD0F830E0A0
:100ED40090F83D70222FE4B240F0A880076D47B926
:100EE400402C06D101975C6901949C690194019C92
:100EF40082E7046D8CB90769B7F5404F0DD10294B0
:100F04005C6902949C690294029C1C6844F4807499
:100F14001C60046D013404656EE7448DA4B254B9B9
:100F240003945C6903949C690394039C1C6844F4D3
:100F340000741C6019E0448DA4B2012C42D116F552
:100F4400803F1BD11C6824F480641C605C6814F42A
:100F540000640CD01C6824F480641C600024049495
:100F64005C6904949C690494049C0024D3E705946C
:100F74005C6905949C690594059CD7E7042E15D0FB
:100F8400082E13D0BEF1120F10D0C46A022C1C68B4
:100F940014BF24F4806444F480641C600024069428
:100FA4005C6906949C690694069CDEE71C6824F43C
:100FB40080641C60002407945C6907949C6907940E
:100FC400079CB3E7448DA4B2022C1CD1C46A022C42
:100FD4001C681DBF24F480641C601C6844F4806495
:100FE40018BF44F400641C605C68270542BF5C6859
:100FF40044F480545C60002408945C6908949C69FF
:101004000894089CB1E71C6844F480641C605C6824
:10101400260542BF5C6844F480545C600024099453
:101024005C6909949C690994099C9EE700240A94CC
:101034005C690A949C690A940A9CDDE6212A03D01F
:10104400402908D1222A06D1428D92B282B95A6827
:1010540022F480625A600DB0F0BD00BF040010009D
:1010640004000100800001000800010002000100EA
:1010740090F83E20402A27D1026D7AB9C26C012A29
:10108400826C05D1D2B21A61036D02330365E2E7C3
:10109400C2F307221A61036D0133F7E7026D012AD7
:1010A40002D1826CD2B2F5E7026D022AD3D190F854
:1010B4003D20222A04D11A6842F480721A60CAE7D9
:1010C40090F83D20212AC6D1426A511C416212780F
:1010D4001A61438D013B9BB24385BCE7002CBAD017
:1010E4009405B8D5C16A90F83D20212AB3D1428D28
:1010F40092B2002AE8D104290DD008290BD011F5A9
:10110400803F08D0596821F4E061596011230363DA
:1011140080F83E20A2E65A6822F4E0625A601A6817
:1011240042F400721A6000232022036380F83D20F9
:1011340090F83E2080F83E30402A7FF492AEFFF7CC
:10114400A6FD88E7904D0D40002D41D051053FD5B7
:10115400002C3DD190F83D20222A7FF47CAF428DB3
:1011640092B2032A13D9426A1B69511C416213705B
:10117400438D013B9BB24385438D9BB2032B7FF48C
:101184006AAF0268536823F48063536063E7012AFB
:101194003FF661AF1A6822F480621A605A6822F43A
:1011A400E0625A60426A1B69511C41621370438DAC
:1011B400013B9BB24385202380F83D30046390F8C3
:1011C4003E3080F83E40402B58D1FFF761FD42E7A6
:1011D400002C3FF440AF97057FF53DAFC16A428DC7
:1011E40092B2042A426A08D1596821F48061596094
:1011F400511C1B69416213706BE7448DA4B2032C2C
:1012040008D1596821F480615960196821F480611A
:101214001960EDE7448DA4B2022CE9D1013901290A
:1012240019689DBF21F480611960196841F4007147
:1012340098BF41F4807119601B69511C416213709D
:10124400438D013B9BB24385436A5A1C4262026848
:1012540012691A70438D0268013B9BB2438553683F
:1012640023F440735360202380F83D30002303634C
:1012740090F83E2080F83E30402AA5E7FFF706FDAF
:10128400E9E6424C0C4074B196050CD599699B690A
:1012940081F004011D06C1F3800154BF8289028BD1
:1012A40001F004FCD7E63A4C0C40002C74D09405B1
:1012B40072D590F83D20596821F4E061596000210D
:1012C4000B9159690B91196841F0010119600B994F
:1012D400196821F48061196059680905D2B20CD5E6
:1012E40090F83D10222903D090F83D102A2929D1E5
:1012F400816B0968496889B24185418D89B2E1B140
:1013040059694F0708D5416A1B694C1C44620B702C
:10131400438D013B9BB2438501684B695E0608D54A
:10132400436A09695C1C44621970438D013B9BB29A
:101334004385036C43F004030364036C23B1FFF798
:10134400A9FC88E6416BD4E7A2F1280102290AD856
:10135400104AC2622022036380F83D2080F83E30A8
:1013640001F0C7FB77E6036B222B02D0222A7FF41D
:1013740072AE00232022036380F83D2080F83E30C3
:1013840001F0CEFB67E600BF40000100020001004F
:10139400100001000000FFFF394E3A4C2E400C4073
:1013A400002E36D0384D0D403DB3550525D524BB10
:1013B40090F83D10428D92B2C9B2002A3FF44BAE70
:1013C400426A541C446212781A61428D013A92B204
:1013D4004285428D92B2002A7FF43DAE29297FF4E2
:1013E4003AAE5A6822F480625A60212303632823A8
:1013F40080F83D3001F0A6FB2DE6002C3FF42BAE27
:1014040094057FF528AE428D92B2002A7FF45CAE3B
:1014140021E61E4D0D4035B3510524D51CBB90F873
:101424003D20418D89B2D2B200293FF414AE416A05
:101434001B694C1C44620B70438D013B9BB243857A
:10144400438D9BB2002B7FF406AE2A2A7FF403AEB1
:101454000268536823F480635360222303632823C0
:1014640080F83D308CE7002C3FF4F5AD92057FF514
:10147400F2AD428D92B2002A3FF4EDAD426AB7E676
:10148400040010000400010080000100400001007D
:10149400F8B50368494A5E695D681642044608D097
:1014A400E80506D5226C42F0010222646FF48072D2
:1014B4005A6116F4813F08D0E90506D5226C42F042
:1014C400020222646FF400725A6116F4823F36D02D
:1014D400EA0534D594F83E70618D94F83D20206B74
:1014E400202F89B2D2B258D1002956D102F0F70187
:1014F400212903D0282A50D121284ED194F83D2007
:10150400E16A0429D2B201D008292CD1282A2AD18F
:101514002B4AE2625A6822F4E0625A606FF48062F5
:101524005A611A6822F480621A600023202223631D
:10153400204684F83D2084F83E3001F0DAFA16F4AF
:10154400843F09D0EB0507D5236C43F008032364DB
:1015540023686FF400625A61236C73B32046BDE8BC
:10156400F840FFF797BB212A23D11549E162226392
:10157400202284F83D20002284F83E205A6822F478
:10158400E0625A606FF480625A611A6822F48062E1
:101594001A60204601F0D6FAD1E7226C42F0040228
:1015A400226494F83E20102A02BF1A6842F40072A2
:1015B4001A606FF480625A61C1E7F8BD000101004E
:1015C4000000FFFF806B08B50368416B1A6822F4C2
:1015D40080621A60002242850A65816B0A6590F870
:1015E4003D1060294FF0200180F83D1080F83E2026
:1015F40007D102641A6822F001021A60FFF749FB5E
:1016040008BD1A6822F001021A6001F09FFA08BDB1
:101614002DE9F341044618B9012002B0BDE8F08178
:101624000368DD0710D42368980758D423681A0781
:1016340000F19A8023685B0700F1B880A269002A50
:1016440040F019810020E8E7A64B9A6802F00C02EA
:10165400042A07D09A6802F00C02082A0AD15B68AF
:10166400590207D59F4B1B689A03DCD56368002B8E
:10167400D9D1D1E763689B4DB3F5803F11D12B6875
:1016840043F480332B60FFF7C9F9964D06462B6867
:101694009B03C8D4FFF7C2F9801B6428F7D9032041
:1016A400BBE7B3F5A02F04D12B6843F480232B6050
:1016B400E5E72A6822F480322A602A6822F480222C
:1016C4002A60002BDFD1FFF7A9F906462B689F0398
:1016D400A9D5FFF7A3F9801B6428F7D9DFE7814B6D
:1016E4009A6812F00C0F07D09A6802F00C02082ACC
:1016F40011D15B685E020ED47A4B1A68950702D545
:10170400E268012A88D11A68216922F0F80242EAC3
:10171400C1021A608AE7E268734BB2B101221A600F
:10172400FFF77CF96F4D06462B68980707D52B68A1
:10173400226923F0F80343EAC2032B6076E7FFF73C
:101744006DF9801B0228EFD9A9E71A60FFF766F943
:10175400644D06462B6899077FF568AFFFF75EF97D
:10176400801B0228F6D99AE76269604B7AB101229C
:101774001A60FFF753F95B4D06466B6F9F073FF501
:1017840059AFFFF74BF9801B0228F6D987E71A6097
:10179400FFF744F9534D06466B6F98077FF54AAF40
:1017A400FFF73CF9801B0228F6D978E74D4B1A6CF9
:1017B40012F0805228D101921A6C42F080521A64BD
:1017C4001B6C03F080530193019B0126484D2B6849
:1017D400D9051BD5A368434D012B27D12B6F43F0AB
:1017E40001032B67FFF71AF93E4D074641F288388B
:1017F4002B6F9B0739D5002E3FF420AF394A136C69
:1018040023F08053136419E70026DFE72B6843F4C1
:1018140080732B60FFF702F907462B68DA05D9D4E9
:10182400FFF7FCF8C01B0228F7D938E7052B04D1D1
:101834002B6F43F004032B67D0E72A6F22F00102D9
:101844002A672A6F22F004022A67002BCAD1FFF705
:10185400E5F841F2883807462B6F9807CBD5FFF798
:10186400DDF8C01B4045F7D919E7FFF7D7F8C01BCF
:101874004045BDD913E71B4DAB6803F00C03082B9F
:101884003FF4CAAE1B4E0023022A336034D1FFF763
:10189400C5F807462B6899011ED4226AE3691343ED
:1018A400626A43EA8213E26A43EA0263A26A0D4C63
:1018B4005208013A43EA02436B6001233360FFF7A5
:1018C400ADF8054623689A013FF5BCAEFFF7A6F8CC
:1018D400401B0228F6D9E2E6FFF7A0F8C01B022855
:1018E400D8D9DCE60038024000004742800E474267
:1018F4000070004060004742FFF790F804462B68F0
:101904009B017FF59FAEFFF789F8001B0228F6D9EB
:10191400C5E600BF134908B58B6803F00C03042B1C
:1019240003D0082B03D0104808BD104808BD4A68EE
:101934004B68496813F4800314BF0C480A48C1F388
:10194400881118BF002302F03F02A1FB0001FEF73B
:1019540055FC044B5B68C3F3014301335B00B0FBEC
:10196400F3F008BD003802400024F40000127A00AD
:101974002DE9F0410D46044610B90120BDE8F0817F
:10198400444B1A6802F00F028A4228D321688F0759
:101994002DD4C80740D43F4B1A6802F00F02954279
:1019A40066D3226851076CD4130707D53A4A2169D4
:1019B400936823F4604343EAC1039360FFF7AAFFEB
:1019C400354B364A9B68C3F30313D35CD840344B7E
:1019D40018600020FEF7D8FF0020BDE8F081CAB2ED
:1019E4001A701B6803F00F039942C6D1CEE72A4B45
:1019F40011F0040F1EBF9A6842F4E0529A600E0779
:101A040042BF9A6842F460429A609A68A06822F0E1
:101A1400F00202439A60BCE762681F4B012A1DD1A1
:101A24001B6813F4003FA8D01B4EB36823F00303D4
:101A34001343B360FEF7F2FF41F288380746B368F8
:101A4400626803F00C03B3EB820FA4D0FEF7E6FF49
:101A5400C01B4045F3D90320BDE8F081911E012944
:101A64001B6802D813F0007FDDE713F0020FDAE7FA
:101A7400EAB21A701B6803F00F039D427FF47DAF36
:101A84008FE70549E0688B6823F4E05303438B60D8
:101A94008AE700BF003C0240003802402C340008B2
:101AA40024000020044B054A9B68C3F38223D35CC3
:101AB400034A1068D8407047003802403C3400089C
:101AC40024000020044B054A9B68C3F34233D35CD3
:101AD400034A1068D8407047003802403C3400087C
:101AE40024000020036813F0050FF7B504463CD129
:101AF40023689A0730D500230193444B444D1A6C54
:101B040042F080521A641B6C03F080530193019BD2
:101B14002B6843F480732B60FEF780FF06462B6826
:101B2400D9054AD5394D2B6F13F440734BD1E36873
:101B340003F44072B2F5407F344A63D1916823F0D4
:101B4400704021F4F81120F4407001439160116F4A
:101B5400C3F30B030B431367206810F008001FBF87
:101B64002C4B227C1A60002025E02B4D274E0023AD
:101B74002B60FEF753FF074633681B0115D4A36897
:101B840062681B0743EA8213C6F8843001232B6082
:101B9400FEF744FF1D4D06462B681801A8D4FEF736
:101BA4003DFF801B0228F7D904E0FEF737FFC01B76
:101BB4000228E1D9032003B0F0BDFEF72FFF801BFC
:101BC4000228ACD9F6E7E26802F440729342AED040
:101BD4002B6F124A0121116023F44073002111601C
:101BE4002B672B6FDA07A2D5FEF718FF41F288376F
:101BF40006462B6F9B079AD4FEF710FF801BB84252
:101C0400F7D9D7E7916821F4F8119FE7003802402B
:101C140000700040E011474268004742400E4742CE
:101C24000368DA68D20510B504460AD59B68D9045E
:101C340007D500F031FE2268D368DBB263F4C073C9
:101C4400D3602368DA6892050BD59B689B0408D59A
:101C5400204600F00FF82268D368DBB263F42073E7
:101C6400D360034B4FF400325A610123637710BDF4
:101C7400003C01407047022310B580F839300368F6
:101C8400196A41F211121142044608D1196A40F24C
:101C94004442114202BF1A6822F001021A6020462F
:101CA40000F016FC002084F8390084F8380010BDD8
:101CB40070477047704703681A69910710B5044666
:101CC4000ED5DA6892070BD56FF002021A619B6990
:101CD40001229B07027677D0FFF7EAFF00232376E1
:101CE40023681A69500710D5DA6851070DD56FF0CB
:101CF40004021A619B69022213F4407F2276204673
:101D040068D0FFF7D5FF0023237623681A691207EA
:101D14000FD5DA6810070CD56FF008021A61DB6979
:101D240004229907227620465AD0FFF7C1FF0023E8
:101D3400237623681A69D20610D5DA68D0060DD541
:101D44006FF010021A61DB69082213F4407F2276D7
:101D540020464BD0FFF7ACFF0023237623681A6993
:101D6400D10708D5DA68D20705D56FF001021A61E8
:101D7400204600F054FE23681A69100608D5DA6874
:101D8400110605D56FF080021A61204600F0A4F810
:101D940023681A69520608D5DA68500605D56FF02B
:101DA40040021A612046FFF785FF23681A699106ED
:101DB40022D5DA6892061FD56FF0200220461A61F8
:101DC400BDE8104000F087B800F020FE2046FFF781
:101DD40070FF83E700F01AFE2046FFF76AFF92E7E0
:101DE40000F014FE2046FFF764FFA0E700F00EFEAB
:101DF4002046FFF75EFFAFE710BD036A10B501246C
:101E04008C4023EA04030362036A8A401A43026291
:101E140010BD000010B5044600220068FFF7EDFF76
:101E24002368124A93420DD1196A41F211121142E8
:101E340008D1196A40F24442114202BF5A6C22F49A
:101E440000425A64196A41F21112114208D1196A06
:101E540040F24442114202BF1A6822F001021A60A1
:101E6400012384F83930002010BD00BF0000014078
:101E7400036A10B504248C4023EA04030362036A52
:101E84008A401A43026210BD10B50446002200685D
:101E9400FFF7EEFF2368196A41F21112114208D1CB
:101EA400196A40F24442114202BF5A6C22F40042C1
:101EB4005A64196A41F21112114208D1196A40F2A6
:101EC4004442114202BF1A6822F001021A60002043
:101ED40010BDFFF7D9BF704770470368DA6822F472
:101EE4009072DA605A6922F001025A61202380F864
:101EF4003A3070472DE9F0470668C2683369C16912
:101F040023F4405313433361044683680069F26841
:101F14000343606922F41642034322F00C020B438C
:101F24001343F3607369A26923F440731343B1F557
:101F3400004F73617A4B7CD19E4203D003F58063DA
:101F44009E4244D1FFF7BEFD192505FB00F36068EE
:101F54004FF064094000B3FBF0F3B3FBF9F34FEA2D
:101F64000318FFF7AFFD636868435B00B0FBF3F74A
:101F7400FFF7A8FD636868435B00B0FBF3F3B3FBB2
:101F8400F9F309FB1373DB003233B3FBF9F35B00A2
:101F940003F4F877FFF796FD626868435200B0FBDC
:101FA400F2FAFFF78FFD636868435B00B0FBF3F35D
:101FB400B3FBF9F309FB13A3DB003233B3FBF9F3EF
:101FC40003F0070343443B44B360BDE8F087FFF7E5
:101FD40069FD192505FB00F360684FF064094000B2
:101FE400B3FBF0F3B3FBF9F34FEA0318FFF75AFD21
:101FF400636868435B00B0FBF3F7FFF753FD636866
:1020040068435B00B0FBF3F3B3FBF9F309FB137311
:10201400DB003233B3FBF9F35B0003F4F877FFF72B
:1020240041FD626868435200B0FBF2FAFFF73AFDE3
:10203400B9E79E4202D03B4B9E4240D1FFF742FD9E
:10204400676819254FF0640905FB00F3BF00B3FB73
:10205400F7F3B3FBF9F31F01FFF734FD636868433B
:102064009B00B0FBF3F8FFF72DFD636868439B000A
:10207400B0FBF3F3B3FBF9F309FB13831B01323316
:10208400B3FBF9F303F0F008FFF71CFD6268684343
:102094009200B0FBF2FAFFF715FD636868439B00FA
:1020A400B0FBF3F3B3FBF9F309FB13A31B013233C6
:1020B400B3FBF9F303F00F0343EA080383E7FFF7E5
:1020C400F1FC676819254FF0640905FB00F3BF00B4
:1020D400B3FBF7F3B3FBF9F31F01FFF7E3FC63680A
:1020E40068439B00B0FBF3F8FFF7DCFC63686843CC
:1020F4009B00B0FBF3F3B3FBF9F309FB13831B0160
:102104003233B3FBF9F303F0F008FFF7CBFC62685A
:1021140068439200B0FBF2FAFFF7C4FCBDE700BFCE
:102124000010014000140140704710B5044640B34C
:1021340090F8393003F0FF021BB980F83820FFF71C
:10214400F3FF2268242384F83930D36823F400533E
:10215400D3602046FFF7CEFE23681A6922F490422A
:102164001A615A6922F02A025A61DA6842F400526A
:10217400DA6000202023E06384F8393084F83A30B0
:1021840010BD012010BD90F83930202B18D1A9B111
:10219400A2B190F83830012B12D0C284016282843B
:1021A40000230168C363212280F83920CA6880F8BB
:1021B400383042F08002CA601846704701207047E8
:1021C4000220704790F83A30202B1CD1C9B1C2B11B
:1021D40090F83830012B16D0C28582850023222244
:1021E400C36380F83A2002688162516980F838300C
:1021F40041F001015161D16841F49071D1601846F8
:102204007047012070470220704790F83A30222B23
:1022140010B532D1836801690268B3F5805F836ABF
:102224001FD15268C9B9C2F3080223F8022B836292
:10223400C48D013CA4B2C4856CB90368DA6822F485
:102244009072DA605A6922F001025A61202380F800
:102254003A3000F0F1FD002010BDD2B223F8012B7A
:10226400E5E721B9591C526881621A70E0E75268A7
:10227400591C816202F07F02F7E7022010BD0000C2
:1022840003681A68D96870B5160704465D6907D1F2
:1022940096065AD58D0658D5BDE87040FFF7B5BFF0
:1022A40015F0010502D111F4907F4ED0D30705D566
:1022B400CE0542BFE36B43F00103E363500704D54B
:1022C4001DB1E36B43F00203E363930704D51DB12F
:1022D400E36B43F00403E363160704D51DB1E36B1A
:1022E40043F00803E363E36B002B66D0950604D543
:1022F400880602D52046FFF788FF23685D69E26BF4
:102304001107204602D415F040051AD0FFF7E5FD69
:1023140023685A69520610D55A69606B22F040024C
:102324005A6150B1254B0365FEF7FDFB002844D0EC
:10233400606BBDE87040036D1847204600F0B6FDA1
:1023440070BD00F0B3FDE56370BD160627D50D061C
:1023540025D594F83920212A2FD1A268B2F5805FBF
:10236400226A17D11188C1F308015960216979B92A
:1023740002322262E28C013A92B2E284EAB9DA6869
:1023840022F08002DA60DA6842F04002DA6070BD5E
:102394000132EEE7511C216212785A60EAE75006D6
:1023A4000BD54A0609D5DA6822F04002DA60202308
:1023B40084F83930204600F053FD70BDC523000871
:1023C40008B5806B0023C385C38400F06FFD08BD8E
:1023D40090F8392090F83A001043704786B00023F3
:1023E400052853D8DFE800F003111E2B384500936D
:1023F400274B28481A6B42F001021A631B6B03F047
:1024040001030093009B06B070470193204B2248C0
:102414001A6B42F002021A631B6B03F0020301936E
:10242400019BF0E702931A4B1C481A6B42F004021A
:102434001A631B6B03F004030293029BE3E7039309
:10244400134B17481A6B42F008021A631B6B03F014
:1024540008030393039BD6E704930D4B11481A6BAF
:1024640042F010021A631B6B03F010030493049BE5
:10247400C9E70593064B0C481A6B42F080021A63B5
:102484001B6B03F080030593059BBCE70020BAE7B0
:1024940000380240000002400004024000080240EC
:1024A400000C024000100240001C024008B506491E
:1024B40000F0E4F9C0F3C430023802289ABF034B99
:1024C400185C002008BD00BFC0300008903300082D
:1024D40000F044BA30B5124991B0054600F0AAF9AB
:1024E4000190B8B12846FFF7E1FF1828044611D837
:1024F4000C4BC340DB070DD50949284600F0BEF953
:1025040010F4801F214601A806D0FFF7E2FC01A8C1
:10251400FFF7B1FB11B030BDFFF77CFCF7E700BF5C
:10252400C030000811110001FEF778BA704708B5F1
:10253400FEF768FAFEF7F3FAFFF7F8FF08BD08B5EF
:10254400FEF746FABDE80840FEF70AB8064838B573
:10255400A0F5A074A0F114051038FEF7DFF9A54228
:102564002846F7D138BD00BF880200200023012887
:1025740003F1010202D040081346F8E71421DBB24C
:102584004B43044A181D1044816811B11A4413695D
:1025940018477047480100200120FEF7D7BA0220EF
:1025A400FEF7D4BA0420FEF7D1BA0820FEF7CEBA5B
:1025B4001020FEF7CBBA38B505242025A8B2FEF7C3
:1025C400C5FA013C4FEA4505F8D138BD38B50624B3
:1025D4004FF48065A8B2FEF7B9FA013C4FEA45050D
:1025E400F8D138BD224B234906221A7007221A75E6
:1025F400082283F82820092283F83C200A2283F841
:1026040050201722002083F8642083F8782083F870
:102614008C2083F8A02083F8B420282283F8C820D3
:1026240083F8DC2083F8F02083F8042183F8182150
:1026340083F82C21D860186258639864D8651867A9
:10264400C3F88400C3F89800C3F8AC00C3F8C00012
:10265400C3F8D400C3F8E800C3F8FC00C3F81001C1
:10266400C3F82401C3F83801034A00F0DBBC00BFFF
:1026740048010020512500080000002030B5C3683F
:1026840091FAA1F4B4FA84F491FAA1F10325B1FA10
:1026940081F1640005FA04F4490023EA040302FA10
:1026A40001F11943C16030BD431C04D00C3111F950
:1026B4000C3C5A1C01D100207047984201F10C01D6
:1026C400F5D10120704700002DE9F041474B00F09F
:1026D4000F08C0F3031401300E4601F0070753F846
:1026E400285003D14321424800F011F92046FFF756
:1026F40075FE0446826895FAA5F3B3FA83F395FA56
:10270400A5F103205B00B1FA81F100FA03F322EA98
:1027140003034A0000FA02F21343A360874236D847
:10272400DFE807F01D1D021DB8F1070FC6F30620F0
:1027340017D9626A2B0A93FAA3F1B1FA81F193FAD9
:10274400A3F34FF00F0EB3FA83F389000EFA01F1ED
:102754009B0022EA010200FA03F3134363623B463F
:102764001AE0226A95FAA5F3B3FA83F395FAA5F170
:102774004FF00F0EB1FA81F19B000EFA03F38900BA
:1027840022EA030200FA01F313432362E7E76A2112
:10279400174800F0BCF80023226895FAA5F0B0FAB7
:1027A40080F095FAA5F14FF0030EB1FA81F14000E3
:1027B4000EFA00F0490022EA00028B40013F134365
:1027C400012F236005D8636832074CBF2B43AB430A
:1027D4006360C6F30112012A02D0022A18BF002244
:1027E40029462046BDE8F041FFF748BFEC33000816
:1027F40093330008431C06D17047984202D189687C
:10280400FFF762BF0C3191F900305A1CF5D19221C7
:10281400014800F07CB800BF9333000891F9003000
:102824005A1C01D100207047834201D14868704787
:102834000C31F3E7431C01D0FFF7F0BF00207047D1
:102844004B6813B94FF0FF307047834202D191F9BE
:10285400000070470C31F3E708B1FFF7F1BF4FF008
:10286400FF30704791F900305A1C01D11846704767
:10287400834201D1886870470C31F3E7431C01D0CF
:10288400FFF7F0BF7047884204D018B100290CBF8D
:102894000146002108467047034B1B6813B1034AE5
:1028A40010681847704700BF88020020AC0200205F
:1028B4000148FFF7B5B900BF8C020020DFF834D01F
:1028C400002103E00C4B5B58435004310B480C4B84
:1028D40042189A42F6D30B4A02E0002342F8043B22
:1028E400094B9A42F9D300F013F800F0AFFBFEF75E
:1028F40039F8704700800120BC3400080000002033
:10290400280000202800002010040020FEE7FEE735
:102914000F49D1F8883043F47003C1F888300D4B67
:102924001A68002042F001021A6098601A6822F0C6
:10293400847222F480321A60074A5A601A6822F4B8
:1029440080221A60D8604FF000638B60704700BF2C
:1029540000ED00E000380240103000240368234AF0
:1029640093420ED122494A6C22F001024A64214A60
:10297400934217D102F57842536C23F480335364A5
:102984007047B3F1804F05D119490A6C22F0010256
:102994000A64ECE7184A93420DD115490A6C22F0F7
:1029A40002020A64154A93420DD102F57442536C33
:1029B40023F40033E3E7124A93420DD10C490A6C25
:1029C40022F004020A640F4A9342D9D102F57042FC
:1029D400536C23F48023D2E70B4A9342C7D102F508
:1029E4000B32136C23F0080313647047000001409A
:1029F400003802400040014000040040004401400F
:102A04000008004000480140000C0040436C2BB11A
:102A1400027E012A02D10021043818477047034678
:102A240004381B6C03B118477047000010B5064CFE
:102A3400206808B1FFF73FF9606A18B1BDE810409B
:102A4400FFF739B910BD00BFB0020020024B58682F
:102A540008B1FFF730B97047B0020020024B986804
:102A640008B1FFF728B97047B0020020024BD868BC
:102A740008B1FFF720B97047B0020020024B186973
:102A840008B1FFF718B97047B0020020024B186A6A
:102A940008B1FFF710B97047B0020020024B986AE2
:102AA40008B1FFF708B97047B0020020C3689A4222
:102AB40010B504461CD171B9436E80F8581003B1A7
:102AC400984794F8882004F1680120460823BDE85B
:102AD4001040FEF747B800230122C36580F8582050
:102AE400C16D014402236831BDE81040FEF776B899
:102AF40010BD036E10B5044643B190F85820012A66
:102B040004D1C26D12B1C16D68309847022384F8B4
:102B140058300023E3652046BDE81040FEF79AB81C
:102B2400C36D1F2BDEBFC36D0133C36590F85820FE
:102B3400D2B2012A05D1C16D014402236831FEF7E6
:102B44004DB87047002380F88830704790F85930AA
:102B54000BB9FEF77FB87047014B1868FEF72EB922
:102B640008030020014B1868FEF792BC08030020FC
:102B7400014B5868FEF722B908030020014B58683E
:102B8400FEF786BC08030020014B9868FEF716B9CF
:102B940008030020014B9868FEF77ABC0803002064
:102BA40030B5044685B0002854D0484990F95800FF
:102BB400FFF740FE4649054694F95900FFF73AFEEF
:102BC4000146002846D0002D44D02846FFF75BFE7E
:102BD400206000283ED03F4B98423DD103F594330A
:102BE40000215A6A42F010025A625A6A22F0100214
:102BF4005A6201915A6C42F010025A645B6C84F878
:102C0400441003F010030193019B252384F85A30E8
:102C14002E4994F95800FFF7EDFD94F959002C4919
:102C2400FFF7E8FD2C4B94F84420251D43F822506F
:102C340023686360A36CA360E36CE360236D23618A
:102C4400636D63610C23A3610023E361236228465F
:102C5400FFF76BFA05B030BD204B984219D103F54C
:102C6400FA331A6A42F400321A621A6A22F40032FF
:102C74001A62002202921A6C42F400321A641B6C2B
:102C840003F400330293029B012384F84430262387
:102C9400BCE7134B9842BBD103F592335A6A42F016
:102CA40020025A625A6A22F020025A6200220392D7
:102CB4005A6C42F020025A645B6C03F020030393C5
:102CC400039B052384F8443047239FE74C320008D4
:102CD4002832000800100140B403002000440040E2
:102CE4000014014008B5074B90F8442053F8220023
:102CF400FFF76EFB00F02200A0F122035842584176
:102D040008BD00BFB403002008B5074B90F8442069
:102D140053F82200FFF75CFB00F02100A0F121032F
:102D24005842584108BD00BFB403002070B50E4698
:102D3400054610B94FF0FF3070BDFFF7D3FF0446CE
:102D44000028F7D12946064B11F8452F327095F823
:102D54004400012253F82000FFF734FA204670BDE6
:102D6400B403002038B50D46044600B3FFF7BAFF9C
:102D7400E8B994F844300E4A42F823500D4A01460B
:102D840042F8234094F95A000122FDF75FFE94F9BA
:102D94005A00FDF78FFE94F84400074B04F14501F7
:102DA40053F820000122BDE83840FFF70BBA38BDC4
:102DB400140300203C030020B403002010B5044693
:102DC40000B390F84430104A42F823100F4A00210F
:102DD40042F82300022290F95A00FDF737FE94F9D5
:102DE4005A00FDF767FE636EB4F86A1094F8440065
:102DF40013FA81F1064B012253F82000BDE810407C
:102E0400FFF7C1B910BD00BF640300208C0300208C
:102E1400B403002010B548B10649002351F82340FB
:102E2400A042DAB203D001330A2BF7D10A221046AA
:102E340010BD00BFB403002010B5FFF7EBFF092855
:102E440008D8054B054A53F8203052F82000BDE855
:102E54001040184710BD00BF140300203C0300209D
:102E640010B5FFF7D7FF092818D80D4B53F82040A9
:102E74000C4B53F820302046984701300ED0636E37
:102E8400B4F86A1094F8440013FA81F1064B012255
:102E940053F82000BDE81040FFF775B910BD00BF1E
:102EA4008C03002064030020B403002003681A6824
:102EB400D20782B002D55B68019308E01A689007D4
:102EC400F9D41A685107F6D41A681207F3D4019B8F
:102ED40002B0704708B52520FDF710FE024B1868B4
:102EE400BDE80840FFF7CCB9B403002008B526209C
:102EF400FDF704FE024B5868BDE80840FFF7C0B96F
:102F0400B403002008B54720FDF7F8FD024B5869CB
:102F1400BDE80840FFF7B4B9B40300203A282DE90E
:102F2400F041884633D8224B1C56621C2FD0C4F380
:102F34000315204E56F8253004F00F07FB40DB073D
:102F440010D51D492046FFF7AFFB10B12046FFF70F
:102F5400C1FA012303FA07F256F8253023EA0203E3
:102F640046F82530B8F1050F1DD8DFE808F003183E
:102F74001214161A00212046FFF7A6FB0F4901235D
:102F840003FA07F251F82530134341F82530BDE820
:102F9400F0811021EFE72021EDE70321EBE7012188
:102FA400E9E70921E7E746210548FFF7B0FCE5E733
:102FB400C9320008DC030020C0300008F4030020FC
:102FC400443400083A289ABF0B4B1B564FF0FF338A
:102FD400C3F30312052A98BF084803F00F0398BFF0
:102FE40050F82220064888BF002250F8233009B147
:102FF400936170471B04FBE7C93200080C000020F2
:10300400EC330008FFF790BA38B5044648B1FFF72F
:103014008BFA0546FDF79CFCFFF786FA401B8442B9
:10302400F8D838BD0B460146184600F001B8000038
:1030340010B5054C13462CB10A4601460220AFF3E5
:10304400008010BD204610BD0000000070B50D4E7C
:103054000D4CA41BA4100025A54209D10B4E0C4C09
:1030640000F020F8A41BA4100025A54205D170BDD2
:1030740056F8253098470135EEE756F8253098473D
:103084000135F2E7A8340008A8340008A834000881
:10309400B834000802440346934200D1704703F851
:1030A400011BF9E7F8B500BFF8BC08BC9E467047A1
:0C30B400F8B500BFF8BC08BC9E46704791
:1030C00000000000000C004012820000010000001F
:1030D000000C00401202010002000000000C004041
:1030E0001282010003000000000C004012020200E6
:1030F00005000000000000401281000006000000F2
:10310000000400401282000007000000000400409C
:1031100012020100080000000000014012810000BE
:103120000900000000000140120101000A00000037
:1031300000000140128101000B000000000001406E
:10314000120102000F000000000000401281000088
:103150001000000000040040128201001100000075
:1031600000040040120202001300000000000040B2
:10317000120101001400000000040040128200004F
:1031800015000000000400401202010016000000BB
:1031900000080040128200001700000000080040F4
:1031A0001202010018000000000800401282010015
:1031B0001900000000080040120202001A0000007E
:1031C00000000040128101001D00000000000140CD
:1031D000128110001E0000000000014012011100C9
:1031E0001F000000000001401281110026000000B5
:1031F000000400401282000027000000000400408C
:1032000012020100280000000004004012820100A8
:10321000290000000004004012020200FF0000002C
:103220000000000000000000030000000044004017
:10323000120700000A000000001001401207000001
:10324000FF0000000000000000000000020000007D
:10325000004400401207000016000000001001406A
:1032600012070000FF000000000000000000000046
:103270002F686F6D652F6A696D6D792F2E6172648D
:1032800075696E6F31352F7061636B616765732F80
:1032900053544D33322F68617264776172652F73B6
:1032A000746D33322F312E352E302F766172696175
:1032B0006E74732F434F534D494350492F766172BB
:1032C00069616E742E6370700003020A1315141A7C
:1032D0000809271607060519182A2CFF0D0E0F17C7
:1032E0002D2E2F505122232B32292826250C0B1C42
:1032F0001B12111F1E1D240001041021200706228D
:103300002325112406000700082F686F6D652F6ABA
:10331000696D6D792F2E61726475696E6F31352F0D
:103320007061636B616765732F53544D33322F683F
:10333000617264776172652F73746D33322F312E31
:10334000352E302F636F7265732F61726475696EED
:103350006F2F486172647761726553657269616C41
:103360002E637070000000000000000000000000EC
:10337000F10600086D080008650600088F060008C1
:103380007506000831070008C3080008ED080008AA
:1033900004080C2F686F6D652F6A696D6D792F2E8B
:1033A00061726475696E6F31352F7061636B61672F
:1033B00065732F53544D33322F6861726477617295
:1033C000652F73746D33322F312E352E302F636F8E
:1033D0007265732F61726475696E6F2F73746D33CC
:1033E000322F70696E6D61702E6300000100000065
:1033F00002000000040000000800000010000000AF
:1034000020000000400000008000000000010000DB
:10341000000200000004000000080000001000008E
:1034200000200000004000000080000000000000BC
:103430000000000001020304060708090000000064
:10344000010203042F686F6D652F6A696D6D792F16
:103450002E61726475696E6F31352F7061636B61B7
:103460006765732F53544D33322F686172647761EF
:1034700072652F73746D33322F312E352E302F63DA
:103480006F7265732F61726475696E6F2F776972E1
:10349000696E675F6469676974616C2E6300000020
:0834A00090CDFF7F0100000048
:1034A80059090008B90100085D080008E925000865
:0434B8009501000872
:1034BC0000000000010000001000000000000240AD
:1034CC000004024000080240000C024000100240C0
:0834DC00001C02400024F40072
:04000005080028C106
:00000001FF
