:020000040800F2
:100000000050002089230008D1230008D1230008D4
:10001000D1230008D1230008D123000800000000EC
:10002000000000000000000000000000D1230008D4
:10003000D123000800000000D12300088B1D000818
:10004000D1230008D1230008D1230008D1230008C0
:10005000D1230008D1230008F51D0008FB1D00086E
:10006000011E0008071E00080D1E0008D12300080D
:10007000D1230008D1230008D1230008D123000890
:10008000D1230008D1230008D1230008D123000880
:10009000D1230008D1230008D1230008131E000833
:1000A000D12300089D240008D1230008D123000893
:1000B000AD240008BD240008CD24000889250008CF
:1000C00095250008A1250008AD250008D1230008CA
:1000D000D1230008F52600080D2700082527000871
:1000E000291E00087D230008D1230008000000001D
:1000F0000000000000000000000000000000000000
:0C01000000000000000000005FF808F1A3
:10010C0010B5054C237833B9044B13B10448AFF345
:10011C0000800123237010BD24000020000000008B
:10012C00BC2800080C4B43B10C4810B50C49AFF37C
:10013C0000800C48036823B910BD0A48036833B922
:10014C007047094B002BF7D0BDE810401847064B01
:10015C00002BF5D0184700BF00000000BC28000899
:10016C0028000020240000200000000001211120A4
:10017C0002F0E0BA08B50121112002F02FFB4FF478
:10018C007A7002F04FFB1120002102F027FBBDE832
:10019C0008404FF47A7002F045BB4FF4803310B531
:1001AC0094B001220B930021022412934FF4E0131C
:1001BC000AA80A920C910E921194139300F0F0FF7E
:1001CC0000B1FEE70F2305934FF48063079009906D
:1001DC00214605A80694089301F0AAF900B1FEE7A0
:1001EC00122301934FF40043049001A8039301F0F0
:1001FC0057FA044600B1FEE701F04CFA4FF47A735B
:10020C00B0FBF3F000F0E6F9042000F009FA224606
:10021C0021464FF0FF3000F09BF914B010BDB0F840
:10022C006A30013303F03F03A0F86A30B0F86A304B
:10023C00B0F868009BB298424FF0FF3018BF002016
:10024C007047B0F8F430B0F8F600181A00F03F0020
:10025C007047B0F8F430B0F8F6209BB293421ABF56
:10026C00D0F8F030985C4FF0FF307047B0F8F420C5
:10027C00B0F8F63092B29A421FBFD0F8F020D25CA0
:10028C00013303F03F031ABFA0F8F63010464FF0CD
:10029C00FF307047012310B5B0F8FC400374E3182D
:1002AC0003F03F03B0F8FE2092B29342FAD0D0F89C
:1002BC00F820115500F19404A0F8FC30204602F00F
:1002CC0075F918B90249204602F082F9012010BDD7
:1002DC002B020008037C33B1B0F8FC20B0F8FE30E0
:1002EC009BB29A42FAD1704700F11103C0F8F0307A
:1002FC00002300F15102A0F8F430A0F8F630C0F859
:10030C00F820A0F8FC30A0F8FE30704738B5002378
:10031C0043604FF47A7383600F4B044603600F4BBA
:10032C000D4698420BD10E4B9A7ADB7A80F8ED2071
:10033C0080F8EC302046FFF7D7FF204638BD09493E
:10034C00284601F0F1FF084984F8ED00284601F039
:10035C00EBFF84F8EC00EDE7C02A00084000002019
:10036C00942A00081C2A0008582A0008014902484F
:10037C00FFF7CCBF00380140400000202DE9F041D0
:10038C0006460D460C4601EB02084445A4EB050756
:10039C0007D0336814F8011B1B68304698470028B7
:1003AC00F3D13846BDE8F08110B5044602F038FAB6
:1003BC00E06023682046DB689847002808DA02F0E2
:1003CC002FFAE368C01AA3689842F2D34FF0FF30BB
:1003DC0010BD2DE9F04180460D460C468F18BC42ED
:1003EC00A4EB050607D04046FFF7DEFF002802DB32
:1003FC0004F8010BF3E73046BDE8F0812DE9F84332
:10040C008046894616461C467BB11546D718AF4226
:10041C00A5EB060409D04046FFF7C6FF002804DB15
:10042C00484502D005F8010BF1E72046BDE8F883FA
:10043C00836810B5044613B1032201469847204641
:10044C0010BD000008B5044B2BB10448FFF7F9FEB2
:10045C0008B1AFF3008008BD000000004000002090
:10046C0001F095BC7047704708B5032000F05EF8AA
:10047C00BDE80840FFF7F4BF08B5FFF7F4FFFFF73E
:10048C0075FE044CFFF776FE002CFBD0FFF7DAFF6D
:10049C00F8E700BF510400087047000038B50E4B58
:1004AC00054618784FF47A73B3FBF0F30B4A1068D7
:1004BC00B0FBF3F000F08EF8044658B90F2D09D8B4
:1004CC00024629464FF0FF3000F042F8044B20461C
:1004DC001D6038BD012038BD040000202000002024
:1004EC0008000020074A08B51368032043F01003E6
:1004FC00136000F01BF80F20FFF7D0FFFFF7CCFFC5
:10050C00002008BD00200240034A044B11681B78F0
:10051C000B441360704700BF8C03002004000020C4
:10052C00014B1868704700BF8C030020074A00027B
:10053C00D36800F4E06023F4E0631B041B0C43F06D
:10054C00BF6343F400330343D360704700ED00E016
:10055C00174B30B5DC68C4F30224C4F10703251D26
:10056C00042B28BF0423062D4FF0010598BF00244F
:10057C0005FA03F303F1FF3388BF033C1940A14094
:10058C0005FA04F4013C2240002842EA01024FEA39
:10059C000212A9BF00F16040064BD2B200F56140D7
:1005AC00BBBF00F00F00D2B280F800231A5430BD4C
:1005BC0000ED00E014ED00E0002808DB0123420907
:1005CC0000F01F0003FA00F0014B43F822007047C3
:1005DC0000E100E00138B0F1807F0AD2F021064B37
:1005EC00064A586082F823100020072298601A608F
:1005FC0070470120704700BF10E000E000ED00E004
:10060C00002809DB0122430900F01F0002FA00F068
:10061C00024A603342F82300704700BF00E100E05B
:10062C00044B04281A680CBF42F0040222F00402A6
:10063C001A60704710E000E0704708B5FFF7FCFF48
:10064C0008BD000090F8213010B5022B03D0042314
:10065C008363012010BD03681A6822F00E021A6031
:10066C001A6822F001021A60184A93421FD0143201
:10067C0093421ED0143293421DD0143293421DD09B
:10068C00143293421DD0143293420CBF4FF480139A
:10069C004FF080730E4A00245360012380F8213000
:1006AC00436B80F820407BB19847204610BD012356
:1006BC00F0E71023EEE74FF48073EBE74FF4805331
:1006CC00E8E74FF48033E5E7184610BD0800024018
:1006DC000000024008B5044B5969014202D0586130
:1006EC0001F06CFB08BD00BF0004014037B590F869
:1006FC003D40282C34D1002930D0002A2ED090F83F
:10070C003C40012C2CD00124056880F83C402C681E
:10071C00E4075EBF2C6844F001042C602C6824F4C0
:10072C0000642C60292480F83D40202480F83E4051
:10073C00002404644285C362438D019403856B6974
:10074C0041620193AB6980F83C4020460193019BC8
:10075C006B6843F4E0636B6003B030BD0120FBE7D2
:10076C000220F9E737B590F83D40282C34D1002908
:10077C0030D0002A2ED090F83C40012C2CD00124F3
:10078C00056880F83C402C68E4075EBF2C6844F098
:10079C0001042C602C6824F400642C602A2480F85A
:1007AC003D40202480F83E40002404644285C3620E
:1007BC00438D019403856B6941620193AB6980F8A9
:1007CC003C4020460193019B6B6843F4E0636B60F3
:1007DC0003B030BD0120FBE70220F9E790F83D3073
:1007EC00202B14D1282380F83D30036800201A6890
:1007FC00D2075EBF1A6842F001021A601A6842F40E
:10080C0080621A605A6842F440725A607047022043
:10081C0070477047704770477047704790F83D308D
:10082C0010B5293B012B0446036839D8002202631A
:10083C00282280F83D201A6822F400621A605A6857
:10084C0012F4006254D05A68606B22F400625A6051
:10085C0090F82130012B394B31D04363FFF7F2FE76
:10086C0050B12268606B136823F0010313602023DE
:10087C0084F83D30436B984794F83D30282B0ED1CB
:10088C00236C5B070BD52E4B2022E3620023204602
:10089C00236384F83D2084F83E3001F03CFE10BD0B
:1008AC0090F83D20602A05D05A6812055CBF2022C2
:1008BC0080F83D200022226384F83E20BBE7A06B29
:1008CC004363FFF7BFFE0028D6D022685369580651
:1008DC0004D5636A1269591C61621A702268A06B94
:1008EC00136823F001031360202384F83D30C1E723
:1008FC0094F83D10602914D1202184F83D10226415
:10090C005A69510604D5626A1B69511C61621370E5
:10091C0022682046136823F001031360FFF77DFF64
:10092C00AAE75A69520604D5626A1B69511C6162B6
:10093C001370204601F01CFE9EE700BF61110008F9
:10094C000000FFFF0368F0B59D6959695A6890F87B
:10095C003E408DB0E4B2102C02D0402C40F05682B8
:10096C0011F0011F66D0970564D590F83E40402CDD
:10097C0043D1046D002C3BD1446C04F0FE041C618B
:10098C00944E954C2E400C40002E00F0A281934DBD
:10099C000D40002D00F06981550540F16681002C59
:1009AC0040F0638190F83D20058D90F83E10D2B256
:1009BC00C9B2C46A002D40F01781212A40F016817B
:1009CC00042C00F06F81082C00F06C8114F5803F32
:1009DC0000F068815A6822F4E0625A6011230363C4
:1009EC0080F83E50202380F83D30FFF712FF18E1CD
:1009FC00446C44F00104E4B2C1E70469B4F5804FDF
:100A0C0005D190F83D40212C446CF2D1B5E7046D32
:100A1C0034B9446CE41104F0060444F0F004AEE77D
:100A2C00046D012CACD1446CE41104F0060444F0C8
:100A3C00F104A4E76A4C0C401CB1960501D5446C3A
:100A4C00D9E7684C0C40002C9AD0940598D590F8B6
:100A5C003E40C66AD0F830E090F83D70E4B2222FE8
:100A6C0040F0AF80076D47B9402C06D100975C6908
:100A7C0000949C690094009C82E7046D8CB9076912
:100A8C00B7F5404F0DD101945C6901949C690194B8
:100A9C00019C1C6844F480741C60046D0134046572
:100AAC006EE7448DA4B254B902945C6902949C69BB
:100ABC000294029C1C6844F400741C6019E0448D80
:100ACC00A4B2012C42D116F5803F1BD11C6824F432
:100ADC0080641C605C6814F400640CD01C6824F402
:100AEC0080641C60002403945C6903949C690394E7
:100AFC00039C0024D3E704945C6904949C690494DB
:100B0C00049CD7E7042E15D0082E13D0BEF1120F7B
:100B1C0010D0C46A022C1C6814BF24F4806444F402
:100B2C0080641C60002405945C6905949C690594A0
:100B3C00059CDEE71C6824F480641C600024069489
:100B4C005C6906949C690694069CB3E7448DA4B238
:100B5C00022C23D1C46A0026022C1C6814D044F445
:100B6C0000641C6007965C6907949C690794079C59
:100B7C001C6824F480641C605C682705B9D55C682B
:100B8C0044F480545C60B4E744F480641C600896C0
:100B9C005C6908949C690894089CEDE71C6844F413
:100BAC0080641C605C68260542BF5C6844F4805419
:100BBC005C60002409945C6909949C690994099C03
:100BCC0097E700240A945C690A949C690A940A9C2D
:100BDC00D6E600BF040010000400010080000100F4
:100BEC000800010002000100212A03D0402918D17D
:100BFC00222A16D1428D92B222B95A6822F480620E
:100C0C005A600EE090F83E20402A28D1026D82B93D
:100C1C00C26C012A826C06D1D2B21A61036D023306
:100C2C0003650DB0F0BDC2F307221A61036D0133E9
:100C3C00F6E7026D012A02D1826CD2B2F5E7026DA1
:100C4C00022AEED190F83D20222A04D11A6842F4EF
:100C5C0080721A60E5E790F83D20212AE1D1426AC2
:100C6C00511C416212781A6199E0002CD9D094057C
:100C7C00D7D5C16A90F83D20212AD2D1428D92B2AB
:100C8C00002AECD104290DD008290BD011F5803F96
:100C9C0008D0596821F4E06159601123036380F88E
:100CAC003E209FE65A6822F4E0625A601A6842F4C9
:100CBC0000721A6000232022036380F83D2090F814
:100CCC003E2080F83E30402A7FF48FAEFFF7A3FD24
:100CDC00A7E78F4D0D40002D46D0510544D5002C73
:100CEC0042D190F83D20222A9BD1428D92B2032A08
:100CFC0005D9426A1B69511C416213704FE0023ADC
:100D0C00012AC26A0DD8022A1A681DBF22F4806219
:100D1C001A601A6842F4806218BF42F400621A60CA
:100D2C006BE7022A1A6814BF22F4806242F48062D4
:100D3C001A605A6822F4E0625A60426A1B69511CBC
:100D4C0041621370438D013B9BB24385202380F895
:100D5C003D300023036390F83E2080F83E30402A5B
:100D6C0051D1FFF759FD5CE7002C3FF45AAF9705C2
:100D7C007FF557AFC26A418D89B20329416A13D1FD
:100D8C00042A04D0082A02D012F5803F03D11A6835
:100D9C0022F480621A601B694A1C42620B70438DFC
:100DAC00013B9BB243853CE7448DA4B2022CF2D1AB
:100DBC00042A1FD0082A1DD012F5803F1AD0022A0F
:100DCC001A6814BF22F4806242F480621A605A6876
:100DDC0022F440725A601B694A1C42620B70438DAC
:100DEC00013B9BB24385436A5A1C426202681269FA
:100DFC001A70A7E75A6822F440725A601A6842F4D3
:100E0C0000721A60E7E7FFF705FD0AE7414C0C405A
:100E1C0074B196050CD599699B6981F004011D0686
:100E2C00C1F3800154BF8289028B01F051FBF8E6BB
:100E3C00394C0C40002C73D0940571D590F83D20A2
:100E4C005968D2B221F4E061596000210B915969C3
:100E5C000B91196841F0010119600B99196821F483
:100E6C0080611960596809050CD590F83D1022294C
:100E7C0003D090F83D102A2929D1816B0968496863
:100E8C0089B24185418D89B2E1B159694F0708D5C5
:100E9C00416A1B694C1C44620B70438D013B9BB235
:100EAC00438501684B695E0608D5436A09695C1C79
:100EBC0044621970438D013B9BB24385036C43F034
:100ECC0004030364036C23B1FFF7A8FCA9E6416B90
:100EDC00D4E7A2F1280102290AD8104AC2622022C2
:100EEC00036380F83D2080F83E3001F014FB98E657
:100EFC00036B222B02D0222A7FF493AE00232022F4
:100F0C00036380F83D2080F83E3001F01BFB88E63F
:100F1C004000010002000100100001000000FFFF72
:100F2C00394E3A4C2E400C40002E36D0384D0D40E8
:100F3C003DB3550525D524BB90F83D10428DC9B263
:100F4C0092B2002A3FF46DAE426A541C446212788D
:100F5C001A61428D013A92B24285428D92B2002AB8
:100F6C007FF45FAE29297FF45CAE5A6822F480626C
:100F7C005A6021230363282380F83D3001F0F4FAF2
:100F8C004FE6002C3FF44DAE94057FF54AAE428DF2
:100F9C0092B2002A7FF463AE43E61E4D0D4035B38A
:100FAC00510524D51CBB90F83D20418DD2B289B29D
:100FBC0000293FF436AE416A1B694C1C44620B702D
:100FCC00438D013B9BB24385438D9BB2002B7FF439
:100FDC0028AE2A2A7FF425AE0268536823F4806376
:100FEC00536022230363282380F83D308DE7002CC7
:100FFC003FF417AE92057FF514AE428D92B2002AE3
:10100C007FF477AE0DE600BF040010000400010071
:10101C008000010040000100F8B503684B4A5E698E
:10102C00044616425D680CD0E8050AD5226C42F0E5
:10103C00010222646FF480725A611A6842F4004211
:10104C001A6016F4813F08D0E90506D5226C42F0EF
:10105C00020222646FF400725A6116F4823F36D099
:10106C00EA0534D594F83E70618D94F83D20202F1C
:10107C0089B2D2B2206B58D1002956D102F0F701B7
:10108C00212903D0282A50D121284ED194F83D2073
:10109C00E16AD2B2042901D008292CD1282A2AD1FC
:1010AC002B4A2046E2625A6822F4E0625A606FF4DE
:1010BC0080625A611A6822F480621A60002320222E
:1010CC00236384F83D2084F83E3001F024FA16F4B2
:1010DC00843F09D0EB0507D56FF40062236C43F015
:1010EC000803236423685A61236C73B32046BDE85C
:1010FC00F840FFF793BB212A23D115492046E16222
:10110C002263202284F83D20002284F83E205A6875
:10111C0022F4E0625A606FF480625A611A6822F419
:10112C0080621A6001F020FAD1E7226C42F00402CE
:10113C00226494F83E20102A02BF1A6842F400720E
:10114C001A606FF480625A61C1E7F8BD00010100BA
:10115C000000FFFF406A08B50368416B1A6822F46F
:10116C0080621A60002242854A63816B4A6390F860
:10117C003D1060294FF0200180F83D1080F83E2092
:10118C0007D102641A6822F001021A60FFF745FBCE
:10119C0008BD1A6822F001021A6001F0E9F908BDD5
:1011AC0003682DE9F341DB07054610D42B689F0734
:1011BC005ED42B68190700F195802B685A0700F153
:1011CC00BF80EA69002A40F02D81002014E0904C89
:1011DC00636803F00C03042B07D0636803F00C0363
:1011EC00082B0CD16368DE0309D523689C03DDD57D
:1011FC006B68002BDAD1012002B0BDE8F0816B687E
:10120C00B3F5803F10D1236843F480332360FFF79C
:10121C0087F9064623689803C8D4FFF781F9801B29
:10122C006428F7D90320E7E79BB9236823F48033BC
:10123C002360236823F480232360FFF771F90646AB
:10124C0023689903B2D5FFF76BF9801B6428F7D993
:10125C00E8E7B3F5A02F236803D143F48023236080
:10126C00D1E723F480332360236823F48023CDE774
:10127C00674C636813F00C0F07D0636803F00C0322
:10128C00082B10D16368DA030DD423689B0702D5B1
:10129C002B69012BAFD123686A6923F0F80343EA69
:1012AC00C203236085E72A695A4B6AB101221A608E
:1012BC00FFF736F9064623689F07ECD4FFF730F9A1
:1012CC00801B0228F7D9ADE71A60FFF729F906460B
:1012DC00236898077FF56DAFFFF722F9801B022872
:1012EC00F6D99FE7AA694A4C4B4BDAB101221A6036
:1012FC00FFF716F90646636A9B070DD54FF4FA52B1
:10130C00464B1B68B3FBF2F3019300BF019B5A1EC3
:10131C000192002BF9D150E7FFF702F9801B02284C
:10132C00E9D97FE71A60FFF7FBF80646636A9F0767
:10133C007FF543AFFFF7F4F8801B0228F6D971E76D
:10134C00334CE369D80024D40127E36943F080537C
:10135C00E361E36903F080530093009B304E3368E4
:10136C00D90518D5EB68012B26D1236A43F001036C
:10137C002362FFF7D5F841F288368046236A9B0733
:10138C003FD5002F3FF41DAFE36923F08053E36199
:10139C0017E70027E2E7336843F480733360FFF705
:1013AC00BFF880463368DA05DCD4FFF7B9F8A0EB58
:1013BC0008006428F6D935E7ABB9236A41F28838BE
:1013CC0023F001032362236A23F004032362FFF753
:1013DC00A7F80646236A9807D3D5FFF7A1F8801B18
:1013EC004045F7D91EE7052B236A03D143F00403CC
:1013FC002362BAE723F001032362236A23F0040378
:10140C00B6E7FFF78DF8A0EB0800B042B6D909E7B4
:10141C0000100240000042428004424220000020A2
:10142C0000700040224C636803F00C03082B3FF45F
:10143C00E2AE00231F4E022A33602BD1FFF770F867
:10144C000746236899011FD42B6AB3F5803F05D159
:10145C006268A96822F400320A436260696A6268B1
:10146C000B4322F474121343636001233360FFF7C0
:10147C0057F8054623689A013FF5A7AEFFF750F8D9
:10148C00401B0228F6D9CDE6FFF74AF8C01B02280C
:10149C00D7D9C7E6FFF744F8054623689B017FF5CB
:1014AC0094AEFFF73DF8401B0228F6D9BAE600BF10
:1014BC00001002406000424230B5194B87B002ACBC
:1014CC0003F11005224618685968083303C2AB4271
:1014DC001446F7D101238DF80430022311498DF8FD
:1014EC0005304B6803F00C02082A17D1C3F3834272
:1014FC0006A80244DB0312F8102C0CD54B680A48E2
:10150C00C3F34043504306AA134413F8143CB0FBF6
:10151C00F3F007B030BD05485043FAE70248F8E74E
:10152C00D42800080010024000127A0000093D0087
:10153C00544A2DE9F0411368054603F007038B422A
:10154C000E462AD329688C0734D4CA0747D44D4A8F
:10155C00136803F007039E42C0F082802A684A4C4D
:10156C0012F0040F40F08780130706D563682A69D0
:10157C0023F4605343EAC2036360FFF79DFF636883
:10158C00424AC3F30313D35CD840414B18600F207D
:10159C00FEF784FF0020BDE8F081136823F00703F9
:1015AC000B431360136803F007039942CAD0012060
:1015BC00BDE8F081344B11F0040F1EBF5A6842F4A1
:1015CC00E0625A60080742BF5A6842F460525A609F
:1015DC005A68A86822F0F00202435A60B5E76A68BC
:1015EC00294C012A23681CD113F4003FDFD0636817
:1015FC0041F2883823F0030313436360FEF790FF36
:10160C006B680746012B14D1636803F00C03042BA1
:10161C009DD0FEF785FFC01B4045F5D90320BDE8E2
:10162C00F081022A02D113F0007FDFE713F0020FE2
:10163C00DCE7022B0FD1636803F00C03082B86D078
:10164C00FEF76EFFC01B4045F5D9E7E7FEF768FFD4
:10165C00C01B4045E2D8636813F00C0FF6D176E757
:10166C00136823F0070333431360136803F0070375
:10167C009E429CD172E76368E96823F4E0630B43F4
:10168C00636071E700200240001002407C2B0008D0
:10169C0020000020014B1868704700BF200000207C
:1016AC0003682DE9F341D907054620D5354CE3698C
:1016BC00DA0032D40127E36943F08053E361E36934
:1016CC0003F080530193019B2F4E3368DB0526D525
:1016DC00236A13F4407336D1236A6A6823F4407387
:1016EC00134323621FB1E36923F08053E36128683D
:1016FC00830706D5234AA968536823F440430B4358
:10170C00536010F010001BD01E4AE968536800208B
:10171C0023F480030B43536012E00027D4E73368B3
:10172C0043F480733360FEF7FBFE80463368D805C4
:10173C00CED4FEF7F5FEA0EB08006428F6D9032002
:10174C0002B0BDE8F0816A6802F440729342C3D0E3
:10175C0001200E4A236A1060002023F440711060AF
:10176C002162D907B8D5FEF7DBFE41F28838064670
:10177C00236A9A07B0D4FEF7D3FE801B4045F7D9F5
:10178C00DDE700BF00100240007000404004424200
:10179C00036810B51A680446920708D55B689B0766
:1017AC0005D500F0D9FD6FF0020223685A604FF4A2
:1017BC000032024B5A610123637410BD00040140D6
:1017CC00022341F2111210B580F83D300368044633
:1017DC00196A114208D140F24442196A114202BFFF
:1017EC001A6822F001021A60204600F099FA0020D3
:1017FC0084F83D0084F83C0010BD7047704770477A
:10180C00036810B51A69044691070ED5DA68920779
:10181C000BD56FF002021A6101229B6902779B07BC
:10182C0077D0FFF7EAFF0023237723681A69500764
:10183C0010D5DA6851070DD56FF004021A61022237
:10184C009B69227713F4407F204668D0FFF7D5FFC1
:10185C000023237723681A6912070FD5DA6810075B
:10186C000CD56FF008021A610422DB692277990704
:10187C0020465AD0FFF7C1FF0023237723681A694B
:10188C00D20610D5DA68D0060DD56FF010021A61A9
:10189C000822DB69227713F4407F20464BD0FFF7F8
:1018AC00ACFF0023237723681A69D10708D5DA68BF
:1018BC00D20705D56FF0010220461A6100F0E1FD58
:1018CC0023681A69100608D5DA68110605D56FF079
:1018DC00800220461A6100F0A3F823681A695206A8
:1018EC0008D5DA68500605D56FF0400220461A611B
:1018FC00FFF785FF23681A69910622D5DA689206EC
:10190C001FD56FF020022046BDE810401A6100F090
:10191C0086B800F0ADFD2046FFF770FF83E700F0BE
:10192C00A7FD2046FFF76AFF92E700F0A1FD2046D5
:10193C00FFF764FFA0E700F09BFD2046FFF75EFF7A
:10194C00AFE710BD10B50124036A8C4023EA0403F1
:10195C000362036A8A401A43026210BD10B5044642
:10196C0000220068FFF7EEFF2368124A93420DD164
:10197C0041F21112196A114208D140F24442196A1B
:10198C00114202BF5A6C22F400425A6441F2111205
:10199C00196A114208D140F24442196A114202BF3D
:1019AC001A6822F001021A600123002084F83D30ED
:1019BC0010BD00BF002C014010B50424036A8C40FC
:1019CC0023EA04030362036A8A401A43026210BDCD
:1019DC0010B5044600220068FFF7EEFF41F2111229
:1019EC002368196A114208D140F24442196A114223
:1019FC0002BF5A6C22F400425A6441F21112196A65
:101A0C00114208D140F24442196A114202BF1A68CD
:101A1C0022F001021A60002010BDFFF7D9BF7047F9
:101A2C0070470368DA6822F49072DA605A6922F01F
:101A3C0001025A61202380F83A30704790F839300F
:101A4C00202B18D1A9B1A2B190F83830012B12D0AB
:101A5C00C28482840023212201620168C36380F85E
:101A6C003920CA6880F8383042F08002CA601846C3
:101A7C007047012070470220704790F83A3010B53B
:101A8C00222B36D183680169B3F5805F0268836AC3
:101A9C0023D15268E9B9C2F3080223F8022B8362FE
:101AAC00C48D013CA4B2C4858CB90368DA6822F0F9
:101ABC002002DA60DA6822F48072DA605A6922F065
:101ACC0001025A61202380F83A3000F0BFFD00205B
:101ADC0010BDD2B223F8012BE1E721B9591C526891
:101AEC0081621A70DCE75268591C816202F07F0235
:101AFC00F7E7022010BD0000036870B51A680446B1
:101B0C001607D9685D6907D196065AD58D0658D542
:101B1C00BDE87040FFF7B1BF15F0010502D111F41B
:101B2C00907F4ED0D30705D5CE0542BFE36B43F073
:101B3C000103E363500704D51DB1E36B43F00203CB
:101B4C00E363930704D51DB1E36B43F00403E36334
:101B5C00160704D51DB1E36B43F00803E363E36B95
:101B6C00002B66D0950604D5880602D52046FFF7D3
:101B7C0084FF236820465D69E26B110702D415F0DF
:101B8C0040051AD0FFF74DFF23685A69520610D54D
:101B9C005A69606B22F040025A6150B1254B436385
:101BAC00FEF750FD002844D0606BBDE87040436BDD
:101BBC001847204600F084FD70BD00F081FDE56300
:101BCC0070BD160627D50D0625D594F83920212A87
:101BDC002FD1A268B2F5805F226A17D11188C1F3A8
:101BEC0008015960216979B902322262E28C013A0A
:101BFC0092B2E284EAB9DA6822F08002DA60DA683A
:101C0C0042F04002DA6070BD0132EEE7511C2162F5
:101C1C0012785A60EAE750060BD54A0609D5DA68FD
:101C2C00204622F04002DA60202384F8393000F09C
:101C3C0021FD70BD451C000808B50023406AC38512
:101C4C00C38400F03DFD08BD90F8392090F83A00AF
:101C5C001043704786B0042841D8DFE800F0031029
:101C6C001C2834001F4B20489A6942F004029A61E8
:101C7C009B6903F004030193019B06B07047194B59
:101C8C001A489A6942F008029A619B6903F00803AA
:101C9C000293029BF1E7134B15489A6942F010022C
:101CAC009A619B6903F010030393039BE5E70D4BCB
:101CBC0010489A6942F020029A619B6903F0200354
:101CCC000493049BD9E7074B0B489A6942F04002F6
:101CDC009A619B6903F040030593059BCDE70020B7
:101CEC00CBE700BF0010024000080140000C01408F
:101CFC0000100140001401400018014008B50649CD
:101D0C0000F024FBC0F3C430023802289ABF034B06
:101D1C00185C002008BD00BFE4280008E02A000879
:101D2C0000F078BB30B5124991B0054600F0EAFAE4
:101D3C000090B8B12846FFF7E1FF1828044611D8E7
:101D4C000C4BC340DB070DD50949284600F0FEFAC1
:101D5C0010F4801F2146684606D0FFF75EFE6846E9
:101D6C00FFF72EFD11B030BDFFF7F8FDF7E700BF10
:101D7C00E428000811110001FEF7D2BB704708B52A
:101D8C00FEF7C2FBFEF759FCFFF7F8FF08BD08B5DC
:101D9C00FEF7A8FBBDE80840FEF7FFB9064838B5CA
:101DAC00A0F5A074A0F114051038FEF741FBA54274
:101DBC002846F7D138BD00BF84020020002301283B
:101DCC0003F1010202D040081346F8E71421DBB2FC
:101DDC004B43044A181D1044816811B11A4413690D
:101DEC0018477047440100200120FEF773BC022005
:101DFC00FEF770BC0420FEF76DBC0820FEF76ABC31
:101E0C001020FEF767BC38B505242025A8B2FEF7D4
:101E1C0061FC013C4FEA4505F8D138BD38B50624C4
:101E2C004FF48065A8B2FEF755FC013C4FEA45051E
:101E3C00F8D138BD0622224B00201A7007221A75E1
:101E4C00082283F82820092283F83C200A2283F8F0
:101E5C005020172283F8642083F8782083F88C2094
:101E6C0083F8A02083F8B4202822D86083F8C820F7
:101E7C0083F8DC2083F8F02083F8042183F8182100
:101E8C0083F82C21186258639864D8651867C3F8D6
:101E9C008400C3F89800C3F8AC00C3F8C000C3F8C2
:101EAC00D400C3F8E800C3F8FC00C3F81001C3F871
:101EBC002401C3F83801034A034900F0C1BC00BF38
:101ECC004401002000000020A91D000830B50D0EB3
:101EDC0091FAA1F4B4FA84F491FAA1F10F23B1FAB6
:101EEC0081F1A40003FA04F44359890023EA0403A2
:101EFC0002FA01F11943415130BD30B50D0E91FA82
:101F0C00A1F4B4FA84F491FAA1F10423B1FA81F1A9
:101F1C00A40003FA04F44359890023EA040302FAE7
:101F2C0001F11943415130BD431C04D00C3111F95E
:101F3C000C3C5A1C01D100207047984201F10C0155
:101F4C00F5D10120704700002DE9F74FB24B5FFA35
:101F5C0080F808F00F02B0F1FF3F81460D4601F00A
:101F6C000706C0F3031753F8224003D14321AB48B3
:101F7C0000F029FA3846FFF76DFE012E83464FEA32
:101F8C00146AA74F40F0A38194FAA4F3B3FA83F335
:101F9C0094FAA4F10320B1FA81F15BF80A209B00BA
:101FAC0000FA03F322EA0303324689008840034314
:101FBC004BF80A3021465846013EFFF787FF012EA9
:101FCC0007D815F0080218BF042221465846FFF71F
:101FDC0094FF94FAA4F3B3FA83F394FAA4F299005D
:101FEC000F23B2FA82F28B405BF80A10C5F301158D
:101FFC000B409200012D23FA02F300F01581022D03
:10200C0000F04181082B40F02481042221465846DF
:10201C00FFF75CFF1DE1BB69C5F3062243F001032A
:10202C00BB61BB6903F001030093009B531E232B80
:10203C002CD8DFE813F024002D0034003B004000C6
:10204C0047004C0053005800600069006E0075009A
:10205C007E0083008A0093009C00A100A800B100C0
:10206C00B600BD002B002B002B00C200C9002B00BA
:10207C002B002B002B00CE00D300DA00E100694AC4
:10208C00536843F0E06343F001035360092291E786
:10209C00644A536823F0010343F0E063F5E7614AB7
:1020AC00536843F0E06343F00203EEE75D4A536884
:1020BC0023F00203F0E75B4A536843F0E06343F01C
:1020CC000403E2E7574A536823F00403E4E7554A54
:1020DC00536843F0E06343F00803D6E7514A536872
:1020EC0023F00803D8E74F494B6843F0E06343F013
:1020FC0030034B605EE74B4A536823F0300343F0E8
:10210C00E06343F01003C0E7464A536823F0300302
:10211C00C2E7444A536843F0E06343F0C003B4E7BA
:10212C00404A536823F0C00343F0E06343F040039C
:10213C00ABE73C4A536823F0C003ADE7394A536818
:10214C0043F0E06343F440739FE7364A536823F44B
:10215C00407343F0E06343F4007396E7314A5368ED
:10216C0023F4407343F0E06343F480738DE72D4A0E
:10217C00536823F440738FE72A4A536843F0E063B3
:10218C0043F4406381E7274A536823F4406343F0E8
:10219C00E06343F4006378E7224A536823F4406316
:1021AC007AE7204A536843F0E06343F480536CE7CA
:1021BC001C4A536823F480536EE71A4A536843F061
:1021CC00E06343F4004360E7164A536823F400438A
:1021DC0062E7144A536823F0E06356E7114A5368E8
:1021EC0023F0E06343F080734FE70E4A536823F00B
:1021FC00E06343F0007348E70A4A536823F0E06356
:10220C0043F0806341E76A21044800F0DCF80022C7
:10221C00D0E60822CEE600BF3C2B0008E32A0008DB
:10222C000010024000000140042B04D1082221467A
:10223C005846FFF74BFEDBF80C30240A94FAA4F254
:10224C0023EA0404B2FA82F2012393401C43CBF834
:10225C000C40BB6943F00103BB61BB6903F0010394
:10226C000193019BA8F10D03012B1DD81E4A536845
:10227C0023F0E06343F080635360A8F11308B8F1D6
:10228C00010F1BD813E0042B04D108222146584619
:10229C00FFF71CFEDBF80C30240A23EA040394FA43
:1022AC00A4F4CBF80C30D4E7B9F10F0FE5D10E4AFA
:1022BC00536823F0E06343F00073536003B0BDE850
:1022CC00F08F012221465846FFF700FE79E6032ED7
:1022DC0099D801A353F826F01F220008CF2200083A
:1022EC00232000081B2200080000014091F9003057
:1022FC005A1C01D100207047834201D148687047B5
:10230C000C31F3E7431C01D0FFF7F0BF00207047FE
:10231C004B6813B94FF0FF307047834202D191F9EB
:10232C00000070470C31F3E708B1FFF7F1BF4FF035
:10233C00FF30704791F900305A1C01D11846704794
:10234C00834201D1886870470C31F3E7431C01D0FC
:10235C00FFF7F0BF70470000034B1B6813B1034A33
:10236C0010681847704700BF840200209C020020B0
:10237C000148FFF70DBA00BF88020020002103E0DE
:10238C000B4B5B58435004310A480B4B42189A4292
:10239C00F6D30A4A02E0002342F8043B084B9A4267
:1023AC00F9D300F011F800F05FFAFEF765F870470A
:1023BC00FC2B00080000002024000020240000203A
:1023CC0090030020FEE7FEE70F4B1A6842F0010273
:1023DC001A6059680D4A0A405A601A6822F08472D1
:1023EC0022F480321A601A6822F480221A605A6829
:1023FC0022F4FE025A604FF41F029A604FF0006202
:10240C00034B9A60704700BF001002400000FFF8B9
:10241C0000ED00E00368124A934206D102F56442D3
:10242C00936923F4006393617047B3F1804F05D136
:10243C000C4AD36923F00103D36170470A4A9342D3
:10244C0005D102F50332D36923F00203F4E7074AFE
:10245C009342F2D102F50232D36923F00403EBE785
:10246C00002C014000100240000400400008004015
:10247C00836C2BB1027F012A02D10021043818474A
:10248C00704703465B6C043803B118477047000073
:10249C00024B186808B1FFF7B3B97047A0020020CF
:1024AC00024B586808B1FFF7ABB97047A002002087
:1024BC00024B986808B1FFF7A3B97047A00200203F
:1024CC00024BD86808B1FFF79BB97047A0020020F7
:1024DC00C36810B59A4204461CD171B9436E80F89A
:1024EC00581003B1984794F8882004F168012046ED
:1024FC00BDE810400823FEF7F9B800230122C3659C
:10250C0080F85820C16D0223BDE8104001446831A9
:10251C00FEF728B910BD036E10B5044643B190F810
:10252C005820012A04D1C26D12B1C16D6830984790
:10253C00022384F8583000232046E365BDE81040A0
:10254C00FEF74CB9C36D1F2BDEBFC36D0133C365E2
:10255C0090F85820D2B2012A05D1C16D0223014452
:10256C006831FEF7FFB87047002380F88830704759
:10257C0090F859300BB9FEF731B97047014B186818
:10258C00FEF7E0B9F8020020014B1868FEF744BDD5
:10259C00F8020020014B5868FEF7D4B9F80200206D
:1025AC00014B5868FEF738BDF802002008B5074B00
:1025BC0090F8442053F82200FFF746FB00F021006E
:1025CC00A0F121035842584108BD00BF5003002020
:1025DC0010B5044600B390F84430104A42F823106A
:1025EC000F4A002142F82300022290F95A00FDF70D
:1025FC00AFFF94F95A00FDF7DFFFB4F86A30616E53
:10260C009BB294F844001944064B0122BDE81040DB
:10261C0053F82000FFF712BA10BD00BF28030020AA
:10262C003C0300205003002010B548B1002306499C
:10263C0051F82340DAB2A04203D00133052BF7D175
:10264C000522104610BD00BF5003002010B5FFF747
:10265C00EBFF042808D8BDE81040044B044A53F89B
:10266C00203052F82000184710BD00BF0003002096
:10267C001403002010B5FFF7D7FF042818D80D4B12
:10268C0053F820400C4B53F820302046984701302B
:10269C000ED0B4F86A30616E9BB294F844001944C1
:1026AC00064B0122BDE8104053F82000FFF7C6B9D5
:1026BC0010BD00BF3C030020280300205003002065
:1026CC00036882B01A68D20702D55B68019308E0F0
:1026DC001A689007F9D41A685107F6D41A681207C9
:1026EC00F3D4019B02B0704708B52520FDF788FF95
:1026FC00024B1868BDE80840FFF7FEB950030020F4
:10270C0008B52620FDF77CFF024B5868BDE8084051
:10271C00FFF7F2B95003002008B52720FDF770FF32
:10272C00034B986818B1BDE80840FFF7E5B908BD40
:10273C005003002022282DE9F041884633D8224B43
:10274C001C56621C2FD0214EC4F3031556F82530AD
:10275C0004F00F07FB40DB0710D51D492046FFF79F
:10276C00E3FB10B12046FFF7DDFA012303FA07F271
:10277C0056F8253023EA020346F82530B8F1050F48
:10278C001DD8DFE808F003181214161A0021204691
:10279C00FFF7DAFB01230F4903FA07F251F8253052
:1027AC00134341F82530BDE8F0811021EFE72021DB
:1027BC00EDE70321EBE70121E9E70921E7E74621F2
:1027CC000548FFF700FEE5E7942A000864030020A3
:1027DC00E4280008780300208C2B000822288EBFE8
:1027EC004FF0FF330B4B1B56C3F30312042A98BF55
:1027FC00094803F00F0398BF50F82220074888BF00
:10280C00002250F823301B0A9BB209B113617047A8
:10281C0053617047942A00080C0000203C2B0008E0
:10282C00FFF7AABA38B5044648B1FFF7A5FA054632
:10283C00FDF718FEFFF7A0FA401B8442F8D838BD0C
:10284C000B460146184600F001B8000010B5054CC7
:10285C0013462CB10A4601460220AFF3008010BD8E
:10286C00204610BD0000000070B500250C4E0D4C2C
:10287C00A41BA410A54209D100F01AF800250A4E99
:10288C000A4CA41BA410A54205D170BD56F82530E6
:10289C0098470135EEE756F8253098470135F2E7B1
:1028AC00E82B0008E82B0008E82B0008F82B0008A0
:1028BC00F8B500BFF8BC08BC9E467047F8B500BF21
:0828CC00F8BC08BC9E467047F1
:1028D40002030405060708090A0B0C0D0E0F10105D
:1028E4000000000000000040128000000100000011
:1028F400000000401200010002000000000000403F
:1029040012800100030000000000004012000200D9
:1029140006000000000400401280000007000000D0
:10292400000400401200010008000000002C0140D7
:102934001280000009000000002C01401200010078
:102944000A000000002C0140128001000B0000006E
:10295400002C0140120002000F00000000000040A3
:10296400128F0000100000000004004012800100DB
:1029740011000000000400401200020013000000D7
:1029840000000040120F0100140000000004004089
:10299400129400001500000000040040121401000D
:1029A400160000000008004012800000170000001C
:1029B4000008004012000100180000000008004058
:1029C40012800100190000000008004012000200FB
:1029D4001A00000000000040128F01001B000000DC
:1029E40000000040120F02001D000000002C0140F6
:1029F400128010001E000000002C01401200110083
:102A04001F000000002C014012801100FF00000094
:102A1400000000000000000003000000004400402B
:102A2400100000000A0000000038014010000000FF
:102A34001700000000380140100500001B000000D2
:102A44000048004010000000FF00000000000000EB
:102A540000000000020000000044004012000000DA
:102A640009000000003801401200000016000000B8
:102A740000380140120500001A0000000048004020
:102A840012000000FF000000000000000000000031
:102A9400191817161514130F0C0B0A09081F1E1DFD
:102AA4001C2D2E2F000102030405060710111A1B0A
:102AB400120D0E000000000000000000A10200083A
:102AC400890300084F020008790200085F02000829
:102AD400E1020008DF0300080904000804080C2FC1
:102AE400686F6D652F6A696D6D792F2E61726475DB
:102AF400696E6F31352F7061636B616765732F5336
:102B0400544D33322F68617264776172652F737428
:102B14006D33322F312E352E302F636F7265732F44
:102B240061726475696E6F2F73746D33322F7069BF
:102B34006E6D61702E63000001010000020200004E
:102B44000404000008080000101000002020000009
:102B540040400000808000000100010402000204E3
:102B640004000404080008041000100420002004D9
:102B740040004004800080040000000000000000C9
:102B840001020304060708092F686F6D652F6A693F
:102B94006D6D792F2E61726475696E6F31352F708A
:102BA40061636B616765732F53544D33322F6861D2
:102BB4007264776172652F73746D33322F312E35E1
:102BC4002E302F636F7265732F61726475696E6F37
:102BD4002F776972696E675F6469676974616C2EC7
:042BE400630000008A
:102BE800750400083101000879030008411E000837
:042BF8000D010008C3
:102BFC00000000000100000010000000000801406F
:102C0C00000C01400010014000140140001801406C
:042C1C0000A24A04C4
:040000050800238943
:00000001FF
